S0030000FC
S32520000000BC0400209D0400209D0400209D0400209D0400209D0400209D0400209D04002093
S3252000002000000000000000000000000000000000000000000000000000000000000000009A
S3252000004000000000000000000000000000000000000000000000000000000000000000007A
S3252000006000000000000000000000000000000000000000000000000000000000000000005A
S3252000008000000000000000000000000000000000000000000000000000000000000000003A
S325200000A000000000000000000000000000000000000000000000000000000000000000001A
S325200000C00000000000000000000000000000000000000000000000000000000000000000FA
S325200000E000000000000000000FB418B4DFF818004469029880B2A081206840F0004020604A
S3252000010000BE18BC04B07047BC04002038B505466C684FF0FF302061FF20607500214FF28B
S325200001200400C4F20100016000214FF20800C4F20100016029686FF0010008402860BDE895
S325200001403840704710B504463020207080202070207800F080000028FAD0207800F0100099
S32520000160002801D009200EE0207800F02000002801D0082007E0207800F00100002801D017
S325200001800A2000E00020BDE810407047F8B5044665682769206800F00200002810D047F056
S325200001A0006068602846FFF7CDFF0646002E02D03046FFF799FF21686FF0020008402060BF
S325200001C0BDE8F840704700002DE9F843044666682769A569606980088046002081462068D8
S325200001E000F0100000282FD007F00300002820D00220FFF779FF1CE040F20C40874207D1F5
S32520000200286800F03000202802D10C20FFF76CFF47F0C06070602868B0603046FFF792FF9C
S325200002208146B9F1000F02D04846FFF75DFF3F1D2D1D4146A8F1010080460029DCD121687A
S325200002406FF0100008402060BDE8F843704700002DE9F843044665682669A7696069800852
S325200002608146206800F0200000282BD006F0030000281CD00220FFF737FF18E046F00070DD
S3252000028068604FF08070A8603868E8602846FFF759FF8046B8F1000F07D0B8F10A0F01D1AC
S325200002A0052080464046FFF71FFF361D3F1D4946A9F1010081460029E0D121686FF0200011
S325200002C008402060BDE8F843704700002DE9F84304466768256960692818401E8046E0890B
S325200002E0401E8146206800F00400002821D0606900281ED06FEA0900054048EA0900804697
S3252000030010E045F0106078603846FFF71BFF0646002E05D00A2E00D106263046FFF7E4FEEA
S32520000320E0892D184545ECD921686FF0040008402060BDE8F84370472DE9F84304466568E7
S32520000340206980466069C01DC608206800F0080000282DD008F00700002822D00220FFF7DE
S32520000360C3FE1EE04FF40047B74200D9B7B248F080706860380440F48070A8602846FFF717
S32520000380E1FE8146B9F1000F07D0B9F10A0F01D1062081464846FFF7A7FEF61BF8004044C9
S325200003A08046002EDED121686FF0080008402060BDE8F8437047000070B504466568206861
S325200003C000F08000002812D04FF000406860A068A8602846FFF7B6FE0646002E02D030464C
S325200003E0FFF782FE21686FF0800008402060BDE87040704710B5DFF89C104EF60850CEF281
S32520000400000001604CF2205142F20E00C4F2050001804DF6281142F20E00C4F2050001802E
S32520000420122142F20000C4F205000180DFF86800446921686FF00040084020600020A081D6
S3252000044061680020814202D10220FFF74DFE21694FF6FF70C0F28F00084020612046FFF7F0
S3252000046055FE2046FFF792FE2046FFF7A5FF2046FFF72CFF2046FFF75FFF2046FFF7A4FED8
S325200004802046FFF7E5FE0020FFF72EFEBDE810407047C04600000020BC04002008B507201F
S325200004A0FFF722FEBDE8084070470000DFF808008546FFF79FFF00BEE80000200000002038
S319200004C0AD040020BE00000000000000000000000000000073
S705200004BC1A
