S0030000FC
S32520000000780400205904002059040020590400205904002059040020590400200000000030
S3252000002000000000000000000000000000000000000000000000000000000000000000009A
S3252000004000000000000000000000000000000000000000000000000000000000000000007A
S3252000006000000000000000000000000000000000000000000000000000000000000000005A
S3252000008000000000000000000000000000000000000000000000000000000000000000003A
S325200000A000000000000000000000000000000000000000000000000000000000000000001A
S325200000C00000000000000000000000000000000000000000000000000000000000000000FA
S325200000E000000000000000000FB418B4DFF818004469029880B2A081206840F0004020604A
S3252000010000BE18BC04B070477804002038B505466C684FF0FF302061FF20607500214FF2CF
S325200001200400C4F20100016000214FF20800C4F20100016029686FF0010008402860BDE895
S325200001403840704710B504463020207080202070207800F080000028FAD0207800F0100099
S32520000160002801D009200EE0207800F02000002801D0082007E0207800F00100002801D017
S325200001800A2000E00020BDE810407047F8B5044665682769206800F00200002810D047F056
S325200001A0006068602846FFF7CDFF0646002E02D03046FFF799FF21686FF0020008402060BF
S325200001C0BDE8F840704700002DE9F843044667682569A669606980088046002081462068D8
S325200001E000F01000002830D005F00300002821D00220FFF779FF1DE040F20C40854207D1F6
S32520000200306800F03000202802D10C20FFF76CFF45F0C06078603068B8603846FFF792FF76
S325200002208146B9F1000F02D04846FFF75DFF2D1DA560361D4146A8F1010080460029DBD108
S3252000024021686FF0100008402060BDE8F84370472DE9F843044665682669A76960698008C9
S325200002608146206800F0200000282BD006F0030000281CD00220FFF737FF18E046F00070DD
S3252000028068604FF08070A8603868E8602846FFF759FF8046B8F1000F07D0B8F10A0F01D1AC
S325200002A0052080464046FFF71FFF361D3F1D4946A9F1010081460029E0D121686FF0200011
S325200002C008402060BDE8F843704700002DE9F84304466768256960692818401E8046E0890B
S325200002E0401E8146206800F00400002821D0606900281ED06FEA0900054048EA0900804697
S3252000030010E045F0106078603846FFF71BFF0646002E05D00A2E00D106263046FFF7E4FEEA
S32520000320E0892D184545ECD921686FF0040008402060BDE8F843704770B504462569606989
S32520000340C01C8608206800F00800002809D10FE02868B0F1FF3F02D00620FFF7C5FE761EE8
S325200003602D1D002EF4D121686FF0080008402060BDE870407047000070B504466568206892
S3252000038000F08000002812D04FF000406860A068A8602846FFF7D6FE0646002E02D030466C
S325200003A0FFF7A2FE21686FF0800008402060BDE87040704710B5DFF898104EF60850CEF2A5
S325200003C0000001604CF2205142F20E00C4F2050001804DF6281142F20E00C4F2050001806F
S325200003E0122142F20000C4F205000180DFF86400446921686FF00040084020600020A0811B
S325200004006068002802D10220FFF76EFE21694FF6FF70C0F28F00084020612046FFF776FE57
S325200004202046FFF7B3FE2046FFF7A6FF2046FFF74DFF2046FFF780FF2046FFF7C5FE204680
S32520000440FFF706FF0020FFF74FFEBDE810407047000000207804002008B50720FFF744FE94
S32520000460BDE8084070470000DFF808008546FFF7A1FF00BEE4000020000000206904002003
S31520000480BE00000000000000000000000000000088
S705200004785E
